:020000040800F2
:100000000080002071240008152200081722000833
:10001000192200081B2200081D2200080000000011
:100020000000000000000000000000001F22000887
:1000300021220008000000002322000825220008D9
:10004000B9240008B9240008B9240008B92400081C
:10005000B9240008B9240008B9240008B92400080C
:10006000B9240008B9240008B92400083122000886
:10007000B9240008B9240008B9240008B9240008EC
:10008000B9240008B9240008B9240008B9240008DC
:10009000B9240008B9240008B9240008B9240008CC
:1000A000B9240008B9240008B9240008B9240008BC
:1000B000B9240008B9240008B9240008B9240008AC
:1000C000B9240008B9240008B9240008B92400089C
:1000D000B9240008B9240008B9240008B92400088C
:1000E000B9240008B9240008B9240008B92400087C
:1000F000B92400080000000041220008B9240008CB
:100100000000000000000000B9240008B924000825
:10011000B9240008512200086122000800000000F4
:10012000B9240008000000000000000000000000EA
:0C01300000000000000000005FF808F173
:10013C0010B5054C237833B9044B13B10448AFF315
:10014C0000800123237010BD50000020000000002F
:10015C000425000808B5034B1BB103490348AFF352
:10016C00008008BD00000000540000200425000899
:10017C0010B50446074B1868074BA3FB00308009E9
:10018C0000F0F6FA002221464FF0FF3000F0B0FAF2
:10019C00002010BD4C000020D34D621008B5032088
:1001AC0000F094FA0020FFF7E3FF01F0DDFF0020E0
:1001BC0008BD0000024A136801331360704700BF8A
:1001CC0090000020014B1868704700BF9000002081
:1001DC00002800F0BA8070B582B00446C36C002BC6
:1001EC005CD0E36C13F0100F40F0B180E36C23F49F
:1001FC00885323F0020343F00203E364554A536827
:10020C0023F4403361680B435360E3686269134322
:10021C00E16B4FF4007292FAA2F2B2FA82F201FA96
:10022C0002F21343226A1A43606A022393FAA3F37D
:10023C00B3FA83F300FA03F31343626B102A02D070
:10024C00A16B0A43134325682A6812F0400213D1AC
:10025C00A1690B43A168E66931432669B6F5807F35
:10026C002FD0012E2AD00A43E16A01292CD06868CC
:10027C00394901400A436A6021688868374A02405C
:10028C001A438A602269B2F5807F34D0012A32D0B9
:10029C0021680A6B22F0F8720A633BE0036580F870
:1002AC0048302F4B1A6A42F001021A621B6A03F0A3
:1002BC0001030193019B01F089FD92E74FF48072D9
:1002CC00D1E74FF48072CEE760B9216B01394FF45E
:1002DC00604090FAA0F0B0FA80F0814041F40061E7
:1002EC000A43C4E7E16C41F02001E164216D41F067
:1002FC0001012165BBE725682A6B22F0F872A16A1F
:10030C0001394FF0F87090FAA0F0B0FA80F081400B
:10031C000A432A6322689168124A0A409A420BD017
:10032C00E36C23F0120343F01003E364236D43F0FA
:10033C000103236501200BE000202065E36C23F012
:10034C00030343F00103E36402E001207047012042
:10035C0002B070BD00270140FF16FCFC89F1FFC004
:10036C0000380240FEFF80BF08B5436ADA6C12F019
:10037C00500F03D05B6C1B6B984708BDDA6C42F4D2
:10038C000072DA641A68916811F0405F19D1596AE9
:10039C00B9B9116B11F0F87F03D0916811F4806F2B
:1003AC000FD1516821F020015160DA6C22F4807277
:1003BC00DA64DA6C12F4805F03D1DA6C42F0010279
:1003CC00DA64184601F0ACFDD7E7704708B5406A0F
:1003DC00FFF7FBFF08BD704708B5406AC36C43F0DC
:1003EC004003C364036D43F004030365FFF7F3FF9D
:1003FC0008BD000030B482B00023019390F848305F
:10040C00012B00F0B980012380F848304B68062B93
:10041C0028D805682A6C03EB8303053B1F249C40FA
:10042C0022EA04020C6804FA03F313432B640B68EE
:10043C00092B59D805686A6903EB430307249C40D0
:10044C0022EA04028C6804FA03F313436B610B6811
:10045C00103B012B6CD9002380F84830184602B0B1
:10046C0030BC70470C2B0ED80568EA6B03EB83038A
:10047C00233B1F249C4022EA04020C6804FA03F379
:10048C001343EB63D3E7122B0ED80568AA6B03EB6F
:10049C008303413B1F249C4022EA04020C6804FAAB
:1004AC0003F31343AB63C2E7182B0ED805686A6BD2
:1004BC0003EB83035F3B1F249C4022EA04020C687D
:1004CC0004FA03F313436B63B1E705682A6B03EB80
:1004DC0083037D3B1F249C4022EA04020C6804FA2F
:1004EC0003F313432B63A2E7132B0ED805682A6979
:1004FC0003EB43031E3B07249C4022EA04028C6856
:10050C0004FA03F313432B61A1E71A2B0ED80568E9
:10051C00EA6803EB43033C3B07249C4022EA0402B9
:10052C008C6804FA03F31343EB6090E700BF8EE78B
:10053C00124B5B6813F4000F8DD1104A536843F4CF
:10054C00000353600B68102B85D10D4B1B6802F117
:10055C00467202F52D3202F28332A2FB03239B0C6E
:10056C0003EB83035A00019202E0019B013B0193D0
:10057C00019B002BF9D16EE7022070E700270140A8
:10058C004C00002030B583B00023019303681A6837
:10059C0012F0400F30D19A6842F001029A60184B69
:1005AC001B68184AA2FB03239B0C03EB4303019328
:1005BC0002E0019B013B0193019B002BF9D1044606
:1005CC00FFF700FE054623681B6813F0400F11D19E
:1005DC00FFF7F8FD401B0228F5D9E36C43F010033C
:1005EC00E364236D43F001032365002384F8483052
:1005FC00012002E0002000E0002003B030BD00BF6D
:10060C004C00002083DE1B43F8B590F84840012CC9
:10061C0053D016460F460446012380F84830FFF7A6
:10062C00B1FF0546002849D1E36C23F4E06323F0C5
:10063C00010343F48073E36423685B6813F4806FF5
:10064C0005D0E36C23F4405343F48053E364E36C30
:10065C0013F4805F2ED0236D23F006032365002353
:10066C0084F84830636C164A9A62636C154ADA62F5
:10067C00636C154A1A6323686FF022021A602268B1
:10068C00536843F0806353602268936843F480732B
:10069C009360216833463A465831606C00F0FAF8A2
:1006AC0023689A6812F0405F08D19A6842F0804241
:1006BC009A6003E000232365D1E702252846F8BDA4
:1006CC0075030008D9030008E5030008074AD3683E
:1006DC0023F4E0631B041B0C000200F4E0601843DD
:1006EC0040F0BF6040F40030D060704700ED00E097
:1006FC0030B4174BDB68C3F30223C3F10704042C9B
:10070C0028BF04241D1D062D18D9033B4FF0FF35BF
:10071C0005FA04F421EA0401994005FA03F322EAEC
:10072C000303194300280BDB0901C9B200F1604037
:10073C0000F5614080F8001330BC70470023E5E7FA
:10074C0000F00F000901C9B2024B1954F4E700BFC5
:10075C0000ED00E014ED00E000F01F024009012361
:10076C009340024A42F82030704700BF00E100E09D
:10077C000138B0F1807F0AD2064B5860064AF0214E
:10078C0082F823100020986007221A60704701201D
:10079C00704700BF10E000E000ED00E0042805D039
:1007AC00054A136823F0040313607047024A136868
:1007BC0043F004031360704710E000E0704708B585
:1007CC00FFF7FCFF08BD70B4066CC56B0124B44088
:1007DC006C60046863604368102B05D003689960F3
:1007EC000368DA6070BC704703689A600368D9606C
:1007FC00F8E7000000283FD010B4034601681F4AF8
:10080C0091422ED81E4A0A441E49A1FB021212091B
:10081C00920002641C4AC263022283F821201868E9
:10082C00016821F47F5121F030015A689C68224301
:10083C00DC6822431C6922435C6922439C69224385
:10084C00DC6922430A43026000209862D862186374
:10085C0058639863012283F8212083F8200010BC90
:10086C0070470A4A0A440749A1FB02121209920076
:10087C000264074AC263CFE7012070470764024055
:10088C00F89FFDBFCDCCCCCC00600240F89BFDBFE7
:10089C000064024038B590F82040012C33D001247C
:1008AC0080F8204090F82140E4B2012C04D00023C1
:1008BC0080F82030022038BD0446022084F8210044
:1008CC000020A0632568286820F0010028602046DD
:1008DC00FFF779FFE36A5BB12268136843F00E03FC
:1008EC0013602268136843F0010313600020E2E7F1
:1008FC002268136823F0040313602268136843F022
:10090C000A031360EDE70220D5E738B5C36B1A680C
:10091C0004682568016C04238B40134213D015F036
:10092C00040F10D0236813F0200F03D1236823F099
:10093C0004032360016CC26B04238B405360C36AB5
:10094C0003B1984738BD02238B4013421AD015F0DF
:10095C00020F17D0236813F0200F06D1236823F061
:10096C000A032360012380F82130016CC26B02233F
:10097C008B405360002380F82030836A002BE1D039
:10098C009847DFE7082303FA01F11142DAD015F09A
:10099C00080FD7D0236823F00E032360026CC16BC1
:1009AC00012303FA02F24A60836380F821300023AA
:1009BC0080F82030036B002BC4D09847C2E70000AE
:1009CC00F0B482B0002336E0042400E00024B440EC
:1009DC003C4302355B4E46F825405B4C2568D443BE
:1009EC0004EA05064F6817F4803F01D042EA050679
:1009FC00554D2E606D6804EA05064F6817F4003FEC
:100A0C0001D042EA0506504D6E60AD6804EA050659
:100A1C004F6817F4801F01D042EA05064A4DAE60BC
:100A2C00ED682C404E6816F4001F01D042EA050414
:100A3C00454AD46001330A6832FA03F47FD00124AA
:100A4C009C402240F6D04D68022D01D0122D10D1C1
:100A5C00DE08083650F826C003F00705AF000F2556
:100A6C00BD402CEA050C0D69BD4045EA0C0540F86B
:100A7C00265006685F000325BD40ED4305EA060CD1
:100A8C004E6806F00306BE4046EA0C0606604E6849
:100A9C0006F1FF3CBCF1010F03D9112E01D0122E2F
:100AAC0010D1866805EA060CCE68BE4046EA0C06F4
:100ABC008660466826EA04044E68C6F300169E401B
:100ACC0026434660C46825408C68BC402C43C460F7
:100ADC004C6814F0805FADD01C4C256A45F00105C4
:100AEC002562246A04F001040194019C9D08AE1C4B
:100AFC00144C54F8267003F00304A6000F24B440E1
:100B0C0027EA0407124CA0423FF460AF04F580645E
:100B1C00A0420ED004F58064A0420CD004F5806491
:100B2C00A0420AD004F58064A0423FF44DAF0524E6
:100B3C004DE701244BE7022449E7032447E702B0C1
:100B4C00F0BC704700000140000401400038024036
:100B5C000000024082B0214B9B6813F0F00F2CD1A7
:100B6C001E4B5B6A13F0805F08D01D4B1B6803F4AF
:100B7C00C053B3F5C05F14D000211FE0174A536A6D
:100B8C0043F080535362536A03F080530193019BEB
:100B9C00134B1B6803F4C053516A21F0805151620E
:100BAC00E7E7B0F5404F01D0002107E00D4A13688C
:100BBC0043F004031360012100E00021094A13688B
:100BCC0023F001030B431360136803F001038B4202
:100BDC0002D0012002B070470020FBE70038024031
:100BEC0000700040003C024070B582B004460368BF
:100BFC0013F0010F37D0754B9B6803F00C03082BD7
:100C0C001AD0724B9B6803F00C030C2B0FD063684B
:100C1C00012B66D0002B40F088806C4B1A6822F4B4
:100C2C0080321A601A6822F480221A605EE0674BE8
:100C3C009B6813F4803FEAD04FF4003393FAA3F38C
:100C4C00624B19684FF4003393FAA3F3B3FA83F3AE
:100C5C0003F01F03012202FA03F30B4203D0636873
:100C6C00002B00F07883236813F0020F00F0BF8094
:100C7C00564B9B6803F00C03042B00F09080534BF5
:100C8C009B6803F00C030C2B00F08380E368002BB3
:100C9C0000F04B81012292FAA2F3B3FA83F303F131
:100CAC00845303F58E139B001A60FFF78BFA0546ED
:100CBC00022393FAA3F3454B1968022393FAA3F387
:100CCC00B3FA83F303F01F03012202FA03F30B427E
:100CDC0040F01B81FFF776FA401B0228E8D903206D
:100CEC0040E33A4A136843F480331360636893B368
:100CFC00FFF768FA05464FF4003393FAA3F3334B2E
:100D0C0019684FF4003393FAA3F3B3FA83F303F0A7
:100D1C001F03012202FA03F30B42A4D1FFF752FA8C
:100D2C00401B6428E7D903201CE3052B09D0274B73
:100D3C001A6822F480321A601A6822F480221A602F
:100D4C00D4E7224B1A6842F480221A601A6842F4E3
:100D5C0080321A60CAE7FFF735FA05464FF40033C4
:100D6C0093FAA3F3194B19684FF4003393FAA3F3D6
:100D7C00B3FA83F303F01F03012202FA03F30B42CD
:100D8C003FF471AFFFF71EFA401B6428E6D903202D
:100D9C00E8E20E4B9B6813F4803F7FF477AF02239D
:100DAC0093FAA3F3094B1968022393FAA3F3B3FA4A
:100DBC0083F303F01F03012202FA03F30B4207D063
:100DCC00E368934204D00120CCE200BF003802401B
:100DDC00C148436823F4F85321694FF4F85292FA4E
:100DEC00A2F2B2FA82F201FA02F2134343602368D0
:100DFC0013F0100F5CD0B84B9B6813F00C0F40F045
:100E0C00D8804FF4007393FAA3F3B34B19684FF4E3
:100E1C00007393FAA3F3B3FA83F303F01F030122D5
:100E2C0002FA03F30B4203D0A369002B00F0958266
:100E3C00206AA94B5B6803F46043984240F29D80A2
:100E4C00FFF788FE002840F08A82A3494B6823F400
:100E5C006043226A13434B604B6823F07F43E06985
:100E6C004FF07F4292FAA2F2B2FA82F200FA02F248
:100E7C0013434B60236A4FF4604292FAA2F2B2FA27
:100E8C0082F2D3405A1C4FF400439340924A92682A
:100E9C0002F0F002F02191FAA1F1B1FA81F1CA400D
:100EAC008E498A5CD3408E4A13600020FFF760F9AC
:100EBC00236813F0080F00F017816369002B00F012
:100ECC00E680012191FAA1F2B2FA82F2854B134429
:100EDC009B001960FFF776F90546022393FAA3F2FB
:100EEC007D4A516B93FAA3F3B3FA83F303F01F0318
:100EFC00012202FA03F30B4240F0F680FFF762F98D
:100F0C00401B0228E9D903202CE27348436823F4E0
:100F1C00F85321694FF4F85292FAA2F2B2FA82F223
:100F2C0001FA02F21343436061E7012393FAA3F33E
:100F3C00B3FA83F303F1845303F58E139B00002261
:100F4C001A60FFF73FF90546022393FAA3F3624BAD
:100F5C001968022393FAA3F3B3FA83F303F01F0384
:100F6C00012202FA03F30B423FF441AFFFF72AF9D7
:100F7C00401B0228E8D90320F4E157494B6823F4BD
:100F8C006043184348604B6823F07F43E0694FF09F
:100F9C007F4292FAA2F2B2FA82F200FA02F2134300
:100FAC004B60206AFFF7D6FD00283FF463AF0120A9
:100FBC00D8E1A369002B3FD04FF4807393FAA3F3CD
:100FCC00B3FA83F303F1845303F58E139B000122D0
:100FDC001A60FFF7F7F805464FF4007393FAA3F382
:100FEC003D4B19684FF4007393FAA3F3B3FA83F3F0
:100FFC0003F01F03012202FA03F30B4206D1FFF7A1
:10100C00E1F8401B0228E7D90320ABE132494B68D9
:10101C0023F46043226A13434B604B6823F07F43F5
:10102C00E0694FF07F4292FAA2F2B2FA82F200FA31
:10103C0002F213434B603BE74FF4807393FAA3F334
:10104C00B3FA83F303F1845303F58E139B00002250
:10105C001A60FFF7B7F805464FF4007393FAA3F341
:10106C001D4B19684FF4007393FAA3F3B3FA83F38F
:10107C0003F01F03012202FA03F30B423FF418AFF3
:10108C00FFF7A0F8401B0228E6D903206AE10122F1
:10109C0092FAA2F2B2FA82F2124B13449B00002293
:1010AC001A60FFF78FF80546022393FAA3F20A4A57
:1010BC00516B93FAA3F3B3FA83F303F01F030122EA
:1010CC0002FA03F30B420FD0FFF77CF8401B022807
:1010DC00EAD9032046E100BF003802402826000868
:1010EC004C000020A0C19110236813F0040F00F0F5
:1010FC0092809E4B5B6A13F0805F1ED19B4B5A6AA9
:10110C0042F080525A625B6A03F080530193019B58
:10111C000125974B1B6813F4807F10D0A368012B1B
:10112C0021D0002B43D1914B5A6B22F480725A631D
:10113C005A6B22F480625A631AE00025E9E78C4A64
:10114C00136843F480731360FFF73CF80646884B32
:10115C001B6813F4807FE1D1FFF734F8801B6428FF
:10116C00F5D90320FEE0814A536B43F4807353633B
:10117C00A36893B3FFF726F806464FF4007393FA6F
:10118C00A3F27A4A516B93FAA3F3B3FA83F303F005
:10119C001F03012202FA03F30B423BD1FFF712F8B3
:1011AC00801B41F288339842E7D90320DAE0052B03
:1011BC0009D06E4B5A6B22F480725A635A6B22F42C
:1011CC0080625A63D4E7694B5A6B42F480625A636B
:1011DC005A6B42F480725A63CAE7FEF7F3FF064675
:1011EC004FF4007393FAA3F2604A516B93FAA3F392
:1011FC00B3FA83F303F01F03012202FA03F30B4249
:10120C0008D0FEF7DFFF801B41F288339842E7D904
:10121C000320A7E0B5BB636A002B00F0A280534A01
:10122C00926802F00C020C2A00F09E80022B2FD048
:10123C004FF0807393FAA3F3B3FA83F303F184535F
:10124C0003F58E139B0000221A60FEF7BBFF0446C9
:10125C004FF0007393FAA3F3444B19684FF00073EB
:10126C0093FAA3F3B3FA83F303F01F03012202FAF8
:10127C0003F30B426DD0FEF7A5FF001B0228E7D944
:10128C0003206FE0394A536A23F080535362C2E75C
:10129C004FF0807393FAA3F3B3FA83F303F18453FF
:1012AC0003F58E139B0000221A60FEF78BFF054698
:1012BC004FF0007393FAA3F32C4B19684FF00073A3
:1012CC0093FAA3F3B3FA83F303F01F03012202FA98
:1012DC0003F30B4206D0FEF775FF401B0228E7D93B
:1012EC0003203FE021498B6823F47D03A26AE06A66
:1012FC000243206B024313438B604FF0807393FACD
:10130C00A3F3B3FA83F303F1845303F58E139B0019
:10131C0001221A60FEF756FF04464FF0007393FA51
:10132C00A3F3124B19684FF0007393FAA3F3B3FABB
:10133C0083F303F01F03012202FA03F30B4206D1DD
:10134C00FEF740FF001B0228E7D903200AE000202B
:10135C0008E0002006E0012004E0012002E001206A
:10136C0000E0002002B070BD0120FBE70038024015
:10137C0000700040224B986800F00C02082A3CD008
:10138C000C2A13D0042A0FD01D4B586800F460406F
:10139C004FF4604393FAA3F3B3FA83F3D840431C9E
:1013AC004FF40040984070471648704700F4701195
:1013BC004FF4701292FAA2F2B2FA82F221FA02F20D
:1013CC0011498A5C00F440004FF4400393FAA3F3F4
:1013DC00B3FA83F3D8400130094B9B6813F4803F78
:1013EC0005D00A4B03FB02F3B3FBF0F07047054B3F
:1013FC0003FB02F3B3FBF0F070470448704700BFE7
:10140C00003802400024F4001C26000800366E014F
:10141C008D4B1B6803F001038B4214D201290CD0B5
:10142C00894A136823F001030B431360136803F01C
:10143C0001038B4207D001207047834A136843F0A5
:10144C0004031360ECE770B5036813F0020F06D0C9
:10145C007E4A936823F0F0038468234393600C4620
:10146C000546036813F0010F00F0A3804368022BBC
:10147C0018D0032B48D0012B5BD04FF4007292FA9A
:10148C00A2F2724A10684FF4007292FAA2F2B2FA07
:10149C0082F202F01F02012101FA02F2024215D17E
:1014AC000120CDE04FF4003292FAA2F2674A1068A4
:1014BC004FF4003292FAA2F2B2FA82F202F01F0258
:1014CC00012101FA02F2024200F0BB805F498A68F6
:1014DC0022F0030213438B60FEF774FE06466B6822
:1014EC00022B39D0032B46D0012B53D0574B9B6882
:1014FC0013F00C0F5DD0FEF765FE801B41F28833B4
:10150C009842F3D903209BE04FF0007292FAA2F2BA
:10151C004E4A10684FF0007292FAA2F2B2FA82F2BE
:10152C0002F01F02012101FA02F20242CED1012087
:10153C0086E0022292FAA2F2444A1068022292FA3F
:10154C00A2F2B2FA82F202F01F02012101FA02F2B7
:10155C000242BBD1012073E03C4B9B6803F00C03AF
:10156C00082B26D0FEF72EFE801B41F288339842C2
:10157C00F2D9032064E0354B9B6803F00C030C2B71
:10158C0017D0FEF71FFE801B41F288339842F2D928
:10159C00032055E02D4B9B6803F00C03042B08D063
:1015AC00FEF710FE801B41F288339842F2D90320DB
:1015BC0046E0254B1B6803F00103A34214D9012C10
:1015CC000CD0214A136823F00103234313601368E2
:1015DC0003F00103A34207D0012031E01A4A13683B
:1015EC0043F004031360ECE72B6813F0040F06D0F0
:1015FC00164A936823F4E063E9680B4393602B6805
:10160C0013F0080F07D0114A936823F4605329692B
:10161C0043EAC1039360FFF7ADFE0C4B9B6803F0EC
:10162C00F003F02292FAA2F2B2FA82F2D340084A04
:10163C00D35CD840074B18600020FEF799FD0020C2
:10164C0070BD0120FCE700BF003C024000380240A6
:10165C00282600084C000020014B1868704700BF7A
:10166C004C0000200368B0F1804F0ED01C4A904211
:10167C000BD002F58062904207D002F58062904256
:10168C0003D002F57C42904203D123F070034A68E8
:10169C001343B0F1804F16D0114A904213D002F58B
:1016AC00806290420FD002F5806290420BD002F51E
:1016BC007C42904207D002F58062904203D002F542
:1016CC008062904203D123F44073CA6813430360D1
:1016DC008B68C3620B68836201234361704700BF50
:1016EC000004004030B4036A23F001030362036A70
:1016FC004568846924F073040A68224323F00204C9
:10170C008B682343456082614A684263036230BC44
:10171C00704730B4036A23F010030362036A446811
:10172C00826922F4E6420D6842EA052223F0200386
:10173C008D6843EA0513446082614A6882630362E0
:10174C0030BC704730B4036A23F480730362036ABD
:10175C004568C46924F073040A68224323F40073B7
:10176C008C6843EA04234560C2614A68C263036221
:10177C0030BC704730B4036A23F480530362036AAD
:10178C004468C26922F4E6420D6842EA052223F459
:10179C0000538D6843EA05334460C2614A680264B1
:1017AC00036230BC704710B4036A046A24F001046D
:1017BC000462846924F0F00444EA021223F00A0360
:1017CC000B438261036210BC704710B4036A23F0B0
:1017DC00100303628469036A24F4704444EA0232FD
:1017EC0023F0A00343EA01138261036210BC70472B
:1017FC00836823F0700341F007011943816070473F
:10180C0010B4846824F47F4442EA03230B4323433B
:10181C00836010BC704710B4012303FA01F4036A0F
:10182C0023EA04030362036A8A401343036210BC75
:10183C007047A8B110B5044690F835305BB102235F
:10184C0084F83530211D2068FFF70CFF012384F844
:10185C003530002010BD80F8343000F027FDEEE765
:10186C00012070470268D36843F00103D36002681B
:10187C00136843F001031360002070477047A8B150
:10188C0010B5044690F835305BB1022384F835303E
:10189C00211D2068FFF7E6FE012384F83530002077
:1018AC0010BD80F83430FFF7E9FFEEE701207047F8
:1018BC0010B5044601220068FFF7ADFF22681368DB
:1018CC0043F001031360002010BD38B590F834309C
:1018DC00012B66D00D460446012380F834300223D8
:1018EC0080F835300C2A1AD8DFE802F007191919DC
:1018FC00201919193419191947000068FFF7F2FE5D
:10190C002268936943F0080393612268936923F07A
:10191C000403936122689369E9680B439361012383
:10192C0084F83530002084F8340038BD0068FFF7A7
:10193C00F0FE2268936943F4006393612268936913
:10194C0023F48063936122689369E96843EA012375
:10195C009361E4E70068FFF7F5FE2268D36943F072
:10196C000803D3612268D36923F00403D36122688E
:10197C00D369E9680B43D361D1E70068FFF7FAFE3E
:10198C002268D36943F40063D3612268D36923F4DA
:10199C008063D3612268D369E96843EA0123D36188
:1019AC00BDE70220C1E790F83430012B7DD010B593
:1019BC000446012380F83430022380F83530026865
:1019CC00936823F47F4323F0770393600B68402BD9
:1019DC0057D010D9702B3ED01FD8502B47D0602B2E
:1019EC0032D1CA6849680068FFF7EFFE60212068B1
:1019FC00FFF7FEFE28E0102B4DD008D9202B4FD03E
:101A0C00302B21D130210068FFF7F2FE1CE0DBB94E
:101A1C0000210068FFF7ECFE16E0B3F5805F0ED0F6
:101A2C00B3F5005F10D1CB684A6889680068FFF78E
:101A3C00E7FE2268936843F48043936004E00268F5
:101A4C00936823F007039360012384F8353000205A
:101A5C0084F8340010BDCB684A6889680068FFF7C9
:101A6C00CFFE2268936843F077039360ECE7CA6873
:101A7C0049680068FFF797FE50212068FFF7B8FE11
:101A8C00E2E7CA6849680068FFF78DFE40212068CC
:101A9C00FFF7AEFED8E710210068FFF7A9FED3E7E9
:101AAC0020210068FFF7A4FECEE7022070477047A4
:101ABC0070477047704710B5044603681A6912F0F6
:101ACC00020F11D0DA6812F0020F0DD06FF0020283
:101ADC001A610123037503689B6913F0030F5ED031
:101AEC00FFF7E6FF0023237523681A6912F0040F31
:101AFC0012D0DA6812F0040F0ED06FF004021A61E3
:101B0C000223237523689B6913F4407F4DD0204634
:101B1C00FFF7CEFF0023237523681A6912F0080F14
:101B2C0012D0DA6812F0080F0ED06FF008021A61AA
:101B3C00042323752368DB6913F0030F3CD0204684
:101B4C00FFF7B6FF0023237523681A6912F0100FF4
:101B5C0012D0DA6812F0100F0ED06FF010021A616A
:101B6C00082323752368DB6913F4407F2BD02046B0
:101B7C00FFF79EFF0023237523681A6912F0010FEB
:101B8C0003D0DA6812F0010F24D123681A6912F01D
:101B9C00400F03D0DA6812F0400F22D110BDFFF7CE
:101BAC0086FF2046FFF785FF9CE72046FFF77FFF67
:101BBC002046FFF77EFFADE72046FFF778FF204673
:101BCC00FFF777FFBEE72046FFF771FF2046FFF7D0
:101BDC0070FFCFE76FF001021A61204600F0A2F906
:101BEC00D3E76FF040021A612046FFF763FFD5E799
:101BFC0090F83430012B22D030B4012280F83420FC
:101C0C00022380F835300468636823F07003636046
:101C1C00046863680D682B4363600468A36823F051
:101C2C008003A3600468A36849680B43A36080F831
:101C3C003520002380F83430184630BC7047022021
:101C4C007047000000B585B05D485E4B0360002313
:101C5C0043604FF000728260C3604FF48072026187
:101C6C0043618361C3610362012242620A21816282
:101C7C00C362102141638363C263FEF7A9FA002893
:101C8C0067D10223019301230293039301A94C48CA
:101C9C00FEF7B0FB002861D10323019302230293CA
:101CAC0001A94748FEF7A6FB00285CD10423019349
:101CBC000323029301A94248FEF79CFB002857D14D
:101CCC0005230193042302930DEB03013C48FEF71B
:101CDC0091FB002851D10A2301930523029301A9FA
:101CEC003748FEF787FB00284CD1152301930623B8
:101CFC00029301A93248FEF77DFB002847D114233B
:101D0C0001930723029301A92D48FEF773FB0028CA
:101D1C0042D10D2301930823029301A92848FEF711
:101D2C0069FB00283DD10C2301930923029301A9DF
:101D3C002348FEF75FFB002838D10B2301930A23BD
:101D4C00029301A91E48FEF755FBA0BB05B05DF838
:101D5C0004FB4D211C4800F0FFF892E757211A486C
:101D6C0000F0FAF898E76021174800F0F5F89DE7C5
:101D7C006921154800F0F0F8A2E77221124800F032
:101D8C00EBF8A8E77B21104800F0E6F8ADE78421DA
:101D9C000D4800F0E1F8B2E78D210B4800F0DCF8BB
:101DAC00B7E79621084800F0D7F8BCE79F21064812
:101DBC0000F0D2F8C1E7A821034800F0CDF8C5E740
:101DCC00D800002000240140402600080268234B64
:101DDC009A4200D0704770B586B0044603F58A333A
:101DEC001A6A42F400721A621B6A03F400730093BD
:101DFC00009B0F230193032602960025039501A94E
:101E0C001748FEF7DDFD3C2301930296039501A9CB
:101E1C001448FEF7D5FD4FF4404301930296039509
:101E2C0001A91148FEF7CCFD1048114B0360456029
:101E3C0085608023C3600561456120238361C56192
:101E4C00FEF7D8FC20B9094B63645C6206B070BD28
:101E5C00E021084800F080F8F5E700BF00240140BD
:101E6C0000080240000002400004024094000020E0
:101E7C00086002404026000800B583B0164BDA69B2
:101E8C0042F08072DA61DA6902F080720092009A94
:101E9C00DA6942F00072DA61DB6903F000730193D6
:101EAC00019B002211460B20FEF722FC0B20FEF7B3
:101EBC0053FC002211463520FEF71AFC3520FEF7A4
:101ECC004BFC002211463620FEF712FC3620FEF7A2
:101EDC0043FC03B05DF804FB0038024084B00F4BA8
:101EEC00DA6942F00402DA61DA6902F00402019262
:101EFC00019ADA6942F00102DA61DA6902F0010250
:101F0C000292029ADA6942F00202DA61DB6903F0AA
:101F1C0002030393039B04B0704700BF00380240D8
:101F2C00704700000268094B9A4200D0704708497C
:101F3C000A780132D2B2074BA3FB0203DB0803EB96
:101F4C0083035800121A0A70F0E700BF000C00401F
:101F5C006C000020CDCCCCCCFEE7000000B593B0DB
:101F6C00204A136823F4C05343F400631360022324
:101F7C00059301220892102209920E9300230F93CD
:101F8C0010934FF48003119305A8FEF72DFE00BBB0
:101F9C000F230093032301930023029303930493D1
:101FAC0001216846FFF734FAB8B9FFF755FB0E4B21
:101FBC00A3FB00308009FEF7DBFB0420FEF7EEFBF1
:101FCC00002211464FF0FF30FEF792FB13B05DF884
:101FDC0004FBD8210548FFF7BFFFE6210348FFF7B4
:101FEC00BBFF00BF00700040D34D621050260008AC
:101FFC0008B5FEF7D3F8FFF7B1FFFFF76FFFFFF758
:10200C003BFF00F0CDF9FFF71DFE104C2046FFF70B
:10201C0029FC00212046FFF74BFC04212046FFF74A
:10202C0047FC0B4C0A2221460A48FEF7EDFA0A4BF4
:10203C001C6005345C60094B1B78062BFBD1064BEE
:10204C00074A5968186800F031F8F4E74801002095
:10205C002C010020D8000020000000206C00002083
:10206C0070000020012800D07047012905D0064BD4
:10207C001B68002159639A63F6E7034B1B685A638C
:10208C0000229A63704700BF48010020012800D04D
:10209C00704710B5044C00212046FFF709FC0421C1
:1020AC002046FFF705FC10BD480100202DE9F04744
:1020BC008146884617460025012620E026488342A3
:1020CC0033DAB85031E012F57A7F3FDD52424FF0EF
:1020DC00000A03E04FF0010A4FF47A7294B22246E0
:1020EC0001213046FFF7BEFF224651463046FFF72E
:1020FC00B9FF3046FFF7CAFF7600B6B20135042DA2
:10210C0028DC19F80520154B9A5C18F805105B5C57
:10211C00D11AAA0057F825300B4447F8253042F263
:10212C0010708342CADD47F82500BB580C4880FB71
:10213C000320DA17C2EB201202EBC112B2F57A7F40
:10214C00C8DC002ABFDD4FF0010AC7E74FF0000AD8
:10215C00044AC3E7BDE8F087F0D8FFFF1C25000850
:10216C001F85EB5118FCFFFF00B585B0254B5A6A53
:10217C0042F000425A625A6A02F000420192019AFD
:10218C001A6A42F001021A621A6A02F00102029201
:10219C00029A5A6A42F080525A625B6A03F0805388
:1021AC000393039B0320FEF791FA002211466FF074
:1021BC000B00FEF79DFA002211466FF00A00FEF7A5
:1021CC0097FA002211466FF00900FEF791FA0022EF
:1021DC0011466FF00400FEF78BFA002211466FF0E7
:1021EC000300FEF785FA002211466FF00100FEF79E
:1021FC007FFA002211464FF0FF30FEF779FA05B056
:10220C005DF804FB003802407047FEE7FEE7FEE78E
:10221C00FEE770477047704708B5FDF7CBFFFEF738
:10222C00CEFA08BD08B50248FEF76FFB08BD00BF2B
:10223C009400002008B50248FFF73DFC08BD00BF24
:10224C004801002008B50248FEF75FFB08BD00BF3F
:10225C00C401002008B50248FEF757FB08BD00BFBB
:10226C00800100200E4B1A6842F480721A60996843
:10227C000C4A0A409A601A6822F0885222F0011225
:10228C001A601A6822F480221A609A6822F47D027D
:10229C009A600022DA60044B4FF000629A6070473B
:1022AC00003802400CC0FF8800ED00E00268294BAA
:1022BC009A4200D0704710B582B0044603F50B3338
:1022CC005A6A42F008025A625B6A03F008030193EF
:1022DC00019B2148214B03600023436083608022D3
:1022EC00C2604FF4007202614FF40062426183617C
:1022FC00C361FEF77FFA10BB174BE3615C621848B1
:10230C00184B03600023436083608022C2604FF44B
:10231C00007202614FF4006242618361C361FEF797
:10232C0069FA88B90E4B23625C62002211462E209A
:10233C00FEF7DEF92E20FEF70FFA02B010BD812158
:10234C000948FFF709FED7E791210748FFF704FE7C
:10235C00E8E700BF000C00408001002058640240F8
:10236C00C4010020446402406026000802680A4B45
:10237C009A4200D0704700B587B003230193022323
:10238C000293002203920492059301A90348FEF7DD
:10239C0017FB07B05DF804FB000C00400000024086
:1023AC0000B58DB02C482D4B03604FF4F073436097
:1023BC00002383604FF47A72C2600361FFF739FA2D
:1023CC0060BB0CA94FF4805341F8103D2248FFF735
:1023DC00EAFA40BB2048FFF752FA48BB00230693A9
:1023EC00079306A91C48FFF703FC30BB602301933D
:1023FC00002202920392049201A91748FFF765FA92
:10240C0000BB04220DEB02011348FFF75EFAF0B992
:10241C001148FFF7ABFF0DB05DF804FB43211048EA
:10242C00FFF79AFDCDE749210D48FFF795FDD1E760
:10243C004E210B48FFF790FDD0E755210848FFF7D8
:10244C008BFDD3E75E210648FFF786FDD9E76321B4
:10245C000348FFF781FDDBE748010020000C00403A
:10246C0060260008002103E00B4B5B5843500431FD
:10247C000A480B4B42189A42F6D30A4A02E0002350
:10248C0042F8043B084B9A42F9D3FFF7EBFE00F0FD
:10249C000FF8FFF7ADFD704778260008000000200C
:1024AC00500000205000002008020020FEE7000031
:1024BC0070B500250C4E0D4CA41BA410A54209D1DF
:1024CC0000F01AF800250A4E0A4CA41BA410A542D1
:1024DC0005D170BD56F8253098470135EEE756F812
:1024EC00253098470135F2E7702600087026000861
:1024FC007026000874260008F8B500BFF8BC08BCAC
:10250C009E467047F8B500BFF8BC08BC9E467047A5
:10251C00F5E9D3C6BDB6B1ACA7A4A09D9A98959386
:10252C00918F8D8B898886858382817F7E7D7C7A55
:10253C0079787776757473727170706F6E6D6C6B71
:10254C006A6A696867676665656463626261606030
:10255C005F5E5E5D5D5C5B5B5A5A595858575756C7
:10256C005655545453535252515150504F4E4E4D48
:10257C004D4C4C4B4B4A4A494948484747464645BF
:10258C004544444343424241414040403F3F3E3E2C
:10259C003D3D3C3C3B3B3A3A393938383737363598
:1025AC003534343333333232313130302F2F2F2E08
:1025BC002E2D2D2D2C2C2B2B2B2A2A292928282863
:1025CC0027272726262525252424232323222221B9
:1025DC00212120201F1F1F1E1E1E1D1D1C1C1C1B0D
:1025EC001B1A1A1A19191818181717161615151563
:1025FC0014141313121212111110100F0F0E0E0DC2
:10260C000C0C0B0B0A0A0908070706050403020049
:10261C00030406080C101820300000000000000015
:10262C000000000001020304060708090000000076
:10263C00010203042E2E2F5372632F6164632E63E9
:10264C00000000002E2E2F5372632F6D61696E2EC9
:10265C00630000002E2E2F5372632F74696D2E634E
:04266C00000000006A
:0426700061010008FC
:042674003D0100081C
:102678002C01002031010020100008000400020095
:1026880001000100C8000000000000000000000078
:102698002C010000000000000000000085858585F1
:1026A8008585858585858585858585008585858557
:1026B80085858585858585858585850068FF1F00D5
:04000005080024715A
:00000001FF
